{
  "contractName": "Pool",
  "abi": [
    {
      "constant": true,
      "inputs": [],
      "name": "fundingEnd",
      "outputs": [
        {
          "name": "",
          "type": "uint256"
        }
      ],
      "payable": false,
      "stateMutability": "view",
      "type": "function"
    },
    {
      "constant": true,
      "inputs": [],
      "name": "minFunding",
      "outputs": [
        {
          "name": "",
          "type": "uint256"
        }
      ],
      "payable": false,
      "stateMutability": "view",
      "type": "function"
    },
    {
      "constant": true,
      "inputs": [
        {
          "name": "",
          "type": "address"
        }
      ],
      "name": "balances",
      "outputs": [
        {
          "name": "",
          "type": "uint256"
        }
      ],
      "payable": false,
      "stateMutability": "view",
      "type": "function"
    },
    {
      "constant": false,
      "inputs": [],
      "name": "unpause",
      "outputs": [],
      "payable": false,
      "stateMutability": "nonpayable",
      "type": "function"
    },
    {
      "constant": true,
      "inputs": [
        {
          "name": "",
          "type": "uint256"
        }
      ],
      "name": "investors",
      "outputs": [
        {
          "name": "",
          "type": "address"
        }
      ],
      "payable": false,
      "stateMutability": "view",
      "type": "function"
    },
    {
      "constant": true,
      "inputs": [],
      "name": "maxFunding",
      "outputs": [
        {
          "name": "",
          "type": "uint256"
        }
      ],
      "payable": false,
      "stateMutability": "view",
      "type": "function"
    },
    {
      "constant": true,
      "inputs": [],
      "name": "paused",
      "outputs": [
        {
          "name": "",
          "type": "bool"
        }
      ],
      "payable": false,
      "stateMutability": "view",
      "type": "function"
    },
    {
      "constant": true,
      "inputs": [],
      "name": "tokensale",
      "outputs": [
        {
          "name": "",
          "type": "address"
        }
      ],
      "payable": false,
      "stateMutability": "view",
      "type": "function"
    },
    {
      "constant": false,
      "inputs": [],
      "name": "renounceOwnership",
      "outputs": [],
      "payable": false,
      "stateMutability": "nonpayable",
      "type": "function"
    },
    {
      "constant": false,
      "inputs": [],
      "name": "pause",
      "outputs": [],
      "payable": false,
      "stateMutability": "nonpayable",
      "type": "function"
    },
    {
      "constant": true,
      "inputs": [],
      "name": "owner",
      "outputs": [
        {
          "name": "",
          "type": "address"
        }
      ],
      "payable": false,
      "stateMutability": "view",
      "type": "function"
    },
    {
      "constant": true,
      "inputs": [],
      "name": "isOwner",
      "outputs": [
        {
          "name": "",
          "type": "bool"
        }
      ],
      "payable": false,
      "stateMutability": "view",
      "type": "function"
    },
    {
      "constant": true,
      "inputs": [],
      "name": "minTokens",
      "outputs": [
        {
          "name": "",
          "type": "uint256"
        }
      ],
      "payable": false,
      "stateMutability": "view",
      "type": "function"
    },
    {
      "constant": true,
      "inputs": [],
      "name": "fundingStart",
      "outputs": [
        {
          "name": "",
          "type": "uint256"
        }
      ],
      "payable": false,
      "stateMutability": "view",
      "type": "function"
    },
    {
      "constant": false,
      "inputs": [],
      "name": "conditionalTransitions",
      "outputs": [],
      "payable": false,
      "stateMutability": "nonpayable",
      "type": "function"
    },
    {
      "constant": true,
      "inputs": [],
      "name": "getCurrentStateId",
      "outputs": [
        {
          "name": "",
          "type": "bytes32"
        }
      ],
      "payable": false,
      "stateMutability": "view",
      "type": "function"
    },
    {
      "constant": false,
      "inputs": [
        {
          "name": "newOwner",
          "type": "address"
        }
      ],
      "name": "transferOwnership",
      "outputs": [],
      "payable": false,
      "stateMutability": "nonpayable",
      "type": "function"
    },
    {
      "constant": true,
      "inputs": [],
      "name": "totalFundsCollected",
      "outputs": [
        {
          "name": "",
          "type": "uint256"
        }
      ],
      "payable": false,
      "stateMutability": "view",
      "type": "function"
    },
    {
      "constant": true,
      "inputs": [],
      "name": "token",
      "outputs": [
        {
          "name": "",
          "type": "address"
        }
      ],
      "payable": false,
      "stateMutability": "view",
      "type": "function"
    },
    {
      "inputs": [
        {
          "name": "_token",
          "type": "address"
        },
        {
          "name": "_tokensale",
          "type": "address"
        },
        {
          "name": "_fundingStart",
          "type": "uint256"
        },
        {
          "name": "_fundingEnd",
          "type": "uint256"
        },
        {
          "name": "_minFunding",
          "type": "uint256"
        },
        {
          "name": "_maxFunding",
          "type": "uint256"
        },
        {
          "name": "_minTokens",
          "type": "uint256"
        }
      ],
      "payable": false,
      "stateMutability": "nonpayable",
      "type": "constructor"
    },
    {
      "payable": true,
      "stateMutability": "payable",
      "type": "fallback"
    },
    {
      "anonymous": false,
      "inputs": [
        {
          "indexed": false,
          "name": "who",
          "type": "address"
        },
        {
          "indexed": false,
          "name": "amount",
          "type": "uint256"
        }
      ],
      "name": "Deposit",
      "type": "event"
    },
    {
      "anonymous": false,
      "inputs": [
        {
          "indexed": false,
          "name": "who",
          "type": "address"
        },
        {
          "indexed": false,
          "name": "amount",
          "type": "uint256"
        }
      ],
      "name": "Withdraw",
      "type": "event"
    },
    {
      "anonymous": false,
      "inputs": [
        {
          "indexed": false,
          "name": "who",
          "type": "address"
        },
        {
          "indexed": false,
          "name": "amount",
          "type": "uint256"
        }
      ],
      "name": "Refund",
      "type": "event"
    },
    {
      "anonymous": false,
      "inputs": [],
      "name": "Pause",
      "type": "event"
    },
    {
      "anonymous": false,
      "inputs": [],
      "name": "Unpause",
      "type": "event"
    },
    {
      "anonymous": false,
      "inputs": [
        {
          "indexed": true,
          "name": "previousOwner",
          "type": "address"
        },
        {
          "indexed": true,
          "name": "newOwner",
          "type": "address"
        }
      ],
      "name": "OwnershipTransferred",
      "type": "event"
    },
    {
      "anonymous": false,
      "inputs": [
        {
          "indexed": false,
          "name": "stateId",
          "type": "bytes32"
        },
        {
          "indexed": false,
          "name": "blockNumber",
          "type": "uint256"
        }
      ],
      "name": "Transition",
      "type": "event"
    },
    {
      "constant": true,
      "inputs": [],
      "name": "getInvestorsCount",
      "outputs": [
        {
          "name": "",
          "type": "uint256"
        }
      ],
      "payable": false,
      "stateMutability": "view",
      "type": "function"
    },
    {
      "constant": false,
      "inputs": [],
      "name": "depositFunds",
      "outputs": [],
      "payable": true,
      "stateMutability": "payable",
      "type": "function"
    },
    {
      "constant": false,
      "inputs": [],
      "name": "withdrawTokens",
      "outputs": [],
      "payable": false,
      "stateMutability": "nonpayable",
      "type": "function"
    },
    {
      "constant": false,
      "inputs": [],
      "name": "refundFunds",
      "outputs": [],
      "payable": false,
      "stateMutability": "nonpayable",
      "type": "function"
    }
  ],
  "bytecode": "0x6002805460a060020a60ff02191690556101006040527f66756e64696e670000000000000000000000000000000000000000000000000060809081527f696e76657374696e67000000000000000000000000000000000000000000000060a0527f77616974696e670000000000000000000000000000000000000000000000000060c0527f646973747269627574696f6e000000000000000000000000000000000000000060e052620000b790600390600462000893565b506000600c55348015620000ca57600080fd5b5060405160e0806200160b83398101604081815282516020840151918401516060850151608086015160a087015160c09097015160028054600160a060020a031916331790819055949795969395929491939091600160a060020a0316906000907f8be0079c531659141344cd1fd0a4f28419497f9722a3daafe3b4186f6b6457e0908290a360048054600160a060020a03808a16600160a060020a03199283161790925560058054928916929091169190911790556006859055600784905560088390556009829055600a819055620001ac640100000000620001b9810204565b5050505050505062000905565b6200022660038054806020026020016040519081016040528092919081815260200182805480156200020c57602002820191906000526020600020905b81548152600190910190602001808311620001f6575b5050505050620004c4640100000000026401000000009004565b6200025c7f66756e64696e67000000000000000000000000000000000000000000000000006000640100000000620005eb810204565b620002b17f66756e64696e67000000000000000000000000000000000000000000000000007fe2c41dbc00000000000000000000000000000000000000000000000000000000640100000000620005eb810204565b620003067f646973747269627574696f6e00000000000000000000000000000000000000007f8d8f2adb00000000000000000000000000000000000000000000000000000000640100000000620005eb810204565b620003507f696e76657374696e670000000000000000000000000000000000000000000000620006386401000000000262000b111762000666640100000000026401000000009004565b6200039a7f646973747269627574696f6e0000000000000000000000000000000000000000620006b36401000000000262000b401762000666640100000000026401000000009004565b620003e47f696e76657374696e6700000000000000000000000000000000000000000000006200074e6401000000000262000bd8176200076d640100000000026401000000009004565b6200042e7f696e76657374696e670000000000000000000000000000000000000000000000620007ba6401000000000262000bf6176200076d640100000000026401000000009004565b620004787f77616974696e6700000000000000000000000000000000000000000000000000620007d86401000000000262000c13176200076d640100000000026401000000009004565b620004c27f646973747269627574696f6e0000000000000000000000000000000000000000620007ef6401000000000262000c29176200076d640100000000026401000000009004565b565b6000808251111515620004d657600080fd5b60015415620004e457600080fd5b816000815181101515620004f457fe5b6020908102909101015115156200050a57600080fd5b8160008151811015156200051a57fe5b60209081029091010151600190815590505b8151811015620005e75781818151811015156200054557fe5b6020908102909101015115156200055b57600080fd5b81818151811015156200056a57fe5b9060200190602002015160008084600185038151811015156200058957fe5b6020908102909101810151825281019190915260400160009081209190915582518190849084908110620005b957fe5b602090810290910181015182528101919091526040016000205415620005de57600080fd5b6001016200052c565b5050565b6000918252602082815260408084207fffffffff0000000000000000000000000000000000000000000000000000000090931684526001928301909152909120805460ff19169091179055565b600554600c54604051600160a060020a0390921691600081818185875af1925050501515620004c257600080fd5b6000918252602082815260408320600201805460018101825590845292206004830401805460039093166008026101000a6001604060020a03818102199094169290931692909202179055565b60048054604080517f70a08231000000000000000000000000000000000000000000000000000000008152309381019390935251600160a060020a03909116916370a082319160248083019260209291908290030181600087803b1580156200071b57600080fd5b505af115801562000730573d6000803e3d6000fd5b505050506040513d60208110156200074757600080fd5b5051600e55565b6000600854600c54101580156200076757506007544210155b92915050565b6000918252602082815260408320600390810180546001810182559085529190932060048204018054919093166008026101000a6001604060020a03818102199092169290911602179055565b6000600954600c541015801562000767575050600754421115919050565b600080600c54118015620007675750505030311590565b600a5460048054604080517f70a0823100000000000000000000000000000000000000000000000000000000815230938101939093525160009392600160a060020a03909216916370a0823191602480830192602092919082900301818887803b1580156200085d57600080fd5b505af115801562000872573d6000803e3d6000fd5b505050506040513d60208110156200088957600080fd5b5051101592915050565b828054828255906000526020600020908101928215620008d3579160200282015b82811115620008d35782518255602090920191600190910190620008b4565b50620008e1929150620008e5565b5090565b6200090291905b80821115620008e15760008155600101620008ec565b90565b610cf680620009156000396000f3006080604052600436106101325763ffffffff7c010000000000000000000000000000000000000000000000000000000060003504166313e7323e811461013c578063193a42491461016357806327e235e3146101785780633f4ba83a146101995780633feb5f2b146101ae57806349569b82146101e2578063596b975a146101f75780635c975abb1461020c578063704248ec14610235578063715018a61461024a5780638456cb591461025f5780638d8f2adb146102745780638da5cb5b146102895780638f32d59b1461029e5780639d4c5451146102b3578063bcde18f1146102c8578063d525aa32146102dd578063de4138de146102f2578063e2c41dbc14610132578063ed21187a14610307578063f2fde38b1461031c578063f58a6d601461033d578063fc0c546a14610352575b61013a610367565b005b34801561014857600080fd5b50610151610492565b60408051918252519081900360200190f35b34801561016f57600080fd5b50610151610498565b34801561018457600080fd5b50610151600160a060020a036004351661049e565b3480156101a557600080fd5b5061013a6104b0565b3480156101ba57600080fd5b506101c6600435610524565b60408051600160a060020a039092168252519081900360200190f35b3480156101ee57600080fd5b5061013a61054c565b34801561020357600080fd5b5061015161063a565b34801561021857600080fd5b50610221610640565b604080519115158252519081900360200190f35b34801561024157600080fd5b506101c6610650565b34801561025657600080fd5b5061013a61065f565b34801561026b57600080fd5b5061013a6106c9565b34801561028057600080fd5b5061013a610742565b34801561029557600080fd5b506101c66108cf565b3480156102aa57600080fd5b506102216108de565b3480156102bf57600080fd5b506101516108ef565b3480156102d457600080fd5b506101516108f5565b3480156102e957600080fd5b5061013a6108fb565b3480156102fe57600080fd5b506101516109aa565b34801561031357600080fd5b506101516109b0565b34801561032857600080fd5b5061013a600160a060020a03600435166109b6565b34801561034957600080fd5b506101516109d5565b34801561035e57600080fd5b506101c66109db565b61036f6108fb565b600180546000908152602081815260408083207bffffffffffffffffffffffffffffffffffffffffffffffffffffffff1984351684529093019052205460ff1615156103ba57600080fd5b60025460a060020a900460ff16156103d157600080fd5b336000908152600b6020526040902054151561043757600d80546001810182556000919091527fd7b6990105719101dabeb77144f2a3385c8033acd3af97e9423a695e81ad1eb501805473ffffffffffffffffffffffffffffffffffffffff1916331790555b336000818152600b6020908152604091829020805434908101909155600c80548201905582519384529083015280517fe1fffcc4923d04b559f4d29a8bfc6cda04eb5b0d3c460751c2402c5c5cc9109c9281900390910190a1565b60075481565b60085481565b600b6020526000908152604090205481565b6104b86108de565b15156104c357600080fd5b60025460a060020a900460ff1615156104db57600080fd5b6002805474ff0000000000000000000000000000000000000000191690556040517f7805862f689e2f13df9f062ff482ad3ad112aca9e0847911ed832e158c525b3390600090a1565b600d80548290811061053257fe5b600091825260209091200154600160a060020a0316905081565b60006105566108fb565b600180546000908152602081815260408083207bffffffffffffffffffffffffffffffffffffffffffffffffffffffff1984351684529093019052205460ff1615156105a157600080fd5b60025460a060020a900460ff1615156105b957600080fd5b50336000818152600b6020526040808220805490839055905190929183156108fc02918491818181858888f193505050501580156105fb573d6000803e3d6000fd5b50604080513381526020810183905281517fbb28353e4598c3b9199101a66e0989549b659a59a54d2c27fbb183f1932c8e6d929181900390910190a150565b60095481565b60025460a060020a900460ff1681565b600554600160a060020a031681565b6106676108de565b151561067257600080fd5b600254604051600091600160a060020a0316907f8be0079c531659141344cd1fd0a4f28419497f9722a3daafe3b4186f6b6457e0908390a36002805473ffffffffffffffffffffffffffffffffffffffff19169055565b6106d16108de565b15156106dc57600080fd5b60025460a060020a900460ff16156106f357600080fd5b6002805474ff0000000000000000000000000000000000000000191660a060020a1790556040517f6985a02210a168e66602d3235cb6db0e70f92b3ba4d376a33c0f3d9434bff62590600090a1565b60008061074d6108fb565b600180546000908152602081815260408083207bffffffffffffffffffffffffffffffffffffffffffffffffffffffff1984351684529093019052205460ff16151561079857600080fd5b60025460a060020a900460ff16156107af57600080fd5b336000908152600b602052604081208054919055600e54600c54919350670de0b6b3a7640000918285028115156107e257fe5b04028115156107ed57fe5b60048054604080517fa9059cbb000000000000000000000000000000000000000000000000000000008152339381019390935293909204602482018190529251929350600160a060020a039091169163a9059cbb916044808201926020929091908290030181600087803b15801561086457600080fd5b505af1158015610878573d6000803e3d6000fd5b505050506040513d602081101561088e57600080fd5b5050604080513381526020810183905281517f884edad9ce6fa2440d8a54cc123490eb96d2768479d49ff9c7366125a9424364929181900390910190a15050565b600254600160a060020a031690565b600254600160a060020a0316331490565b600a5481565b60065481565b60008060005b5050600154600090815260208190526040812054909150815b60008281526020819052604090206003015481101561099a576000828152602081905260409020600301805461097c9184918490811061095657fe5b6000918252602090912060048204015460039091166008026101000a900463ffffffff16565b15610992576109896109ea565b6001925061099a565b60010161091a565b82156109a557610901565b505050565b60015490565b600d5490565b6109be6108de565b15156109c957600080fd5b6109d281610a93565b50565b600c5481565b600454600160a060020a031681565b60015460009081526020819052604081205490811515610a0957600080fd5b50600181905560005b600082815260208190526040902060020154811015610a555760008281526020819052604090206002018054610a4d91908390811061095657fe5b600101610a12565b6040805183815243602082015281517fc9eebb3cf39ebcc16f7db0bac8f0e44d050159a092bc2d96fb613c7b142c1264929181900390910190a15050565b600160a060020a0381161515610aa857600080fd5b600254604051600160a060020a038084169216907f8be0079c531659141344cd1fd0a4f28419497f9722a3daafe3b4186f6b6457e090600090a36002805473ffffffffffffffffffffffffffffffffffffffff1916600160a060020a0392909216919091179055565b600554600c54604051600160a060020a0390921691600081818185875af1925050501515610b3e57600080fd5b565b60048054604080517f70a08231000000000000000000000000000000000000000000000000000000008152309381019390935251600160a060020a03909116916370a082319160248083019260209291908290030181600087803b158015610ba757600080fd5b505af1158015610bbb573d6000803e3d6000fd5b505050506040513d6020811015610bd157600080fd5b5051600e55565b6000600854600c5410158015610bf057506007544210155b92915050565b6000600954600c5410158015610bf0575050600754421115919050565b600080600c54118015610bf05750505030311590565b600a5460048054604080517f70a0823100000000000000000000000000000000000000000000000000000000815230938101939093525160009392600160a060020a03909216916370a0823191602480830192602092919082900301818887803b158015610c9657600080fd5b505af1158015610caa573d6000803e3d6000fd5b505050506040513d6020811015610cc057600080fd5b50511015929150505600a165627a7a7230582077f4ec4f98e02a464a83c3c6a0acdb1462085cb0034fcebad8563734057248ab0029",
  "source": "pragma solidity ^0.4.24;\n\nimport \"./StateMachine.sol\";\nimport \"./Pausable.sol\";\nimport \"./IToken.sol\";\n\ncontract Pool is StateMachine, Pausable {\n    bytes32 constant FUNDING = \"funding\";\n    bytes32 constant INVESTING = \"investing\";\n    bytes32 constant WAITING = \"waiting\";\n    bytes32 constant DISTRIBUTION = \"distribution\";\n    bytes32[] states = [FUNDING, INVESTING, WAITING, DISTRIBUTION];\n\n    address public token;\n    address public tokensale;\n    uint256 public fundingStart;\n    uint256 public fundingEnd;\n    uint256 public minFunding;\n    uint256 public maxFunding;\n    uint256 public minTokens;\n\n    mapping (address => uint256) public balances;\n\n    uint256 public totalFundsCollected = 0;\n\n    address[] public investors;\n\n    uint256 totalTokensReceived;\n\n    function getInvestorsCount()\n        public view returns (uint256)\n    {\n        return investors.length;\n    }\n\n    event Deposit(address who, uint256 amount);\n    event Withdraw(address who, uint256 amount);\n    event Refund(address who, uint256 amount);\n\n    constructor(\n        address _token,\n        address _tokensale,\n        uint256 _fundingStart,\n        uint256 _fundingEnd,\n        uint256 _minFunding,\n        uint256 _maxFunding,\n        uint256 _minTokens\n    )\n        public\n    {\n        token = _token;\n        tokensale = _tokensale;\n        fundingStart = _fundingStart;\n        fundingEnd = _fundingEnd;\n        minFunding = _minFunding;\n        maxFunding = _maxFunding;\n        minTokens = _minTokens;\n\n        setupStates();\n    }\n\n    function() payable {\n        depositFunds();\n    }\n\n    function depositFunds()\n        public payable checkAllowed whenNotPaused\n    {\n        if (balances[msg.sender] == 0) {\n            investors.push(msg.sender);\n        }\n\n        balances[msg.sender] += msg.value;\n        totalFundsCollected += msg.value;\n\n        emit Deposit(msg.sender, msg.value);\n    }\n\n    function withdrawTokens()\n        public checkAllowed whenNotPaused\n    {\n        uint256 fundsBalance = balances[msg.sender];\n        balances[msg.sender] = 0;\n\n        uint256 tokensBalance = ((fundsBalance*10**18 / totalFundsCollected) * totalTokensReceived) / 10**18;\n\n        IToken(token).transfer(msg.sender, tokensBalance);\n\n        emit Withdraw(msg.sender, tokensBalance);\n    }\n\n    function refundFunds()\n        public checkAllowed whenPaused\n    {\n        uint256 balance = balances[msg.sender];\n        balances[msg.sender] = 0;\n\n        msg.sender.transfer(balance);\n\n        emit Refund(msg.sender, balance);\n    }\n\n    function rememberTotalTokensReceived()\n        internal\n    {\n        totalTokensReceived = IToken(token).balanceOf(address(this));\n    }\n\n    function softcapReachedAfterEnd(bytes32)\n        internal returns (bool)\n    {\n        return totalFundsCollected >= minFunding && now >= fundingEnd;\n    }\n\n    function hardcapReachedBeforeEnd(bytes32)\n        internal returns (bool)\n    {\n        return totalFundsCollected >= maxFunding && now <= fundingEnd;\n    }\n\n    function fundsTransferredToTokensale(bytes32)\n        internal returns (bool)\n    {\n        return totalFundsCollected > 0 && address(this).balance == 0;\n    }\n\n    function tokensReceived(bytes32)\n        internal returns (bool)\n    {\n        return IToken(token).balanceOf(address(this)) >= minTokens;\n    }\n\n    function transferFundsToTokensale()\n        internal\n    {\n        require(tokensale.call.value(totalFundsCollected)());\n    }\n\n    function setupStates() internal {\n        setStates(states);\n\n        allowFunction(FUNDING, 0);\n        allowFunction(FUNDING, this.depositFunds.selector);\n        allowFunction(DISTRIBUTION, this.withdrawTokens.selector);\n\n        addCallback(INVESTING, transferFundsToTokensale);\n        addCallback(DISTRIBUTION, rememberTotalTokensReceived);\n\n        addStartCondition(INVESTING, softcapReachedAfterEnd);\n        addStartCondition(INVESTING, hardcapReachedBeforeEnd);\n\n        addStartCondition(WAITING, fundsTransferredToTokensale);\n\n        addStartCondition(DISTRIBUTION, tokensReceived);\n    }\n}\n",
  "sourcePath": "/home/sevenflash/apps/icopool-truffle/contracts/Pool.sol",
  "compiler": {
    "name": "solc",
    "version": "0.4.24+commit.e67f0147.Emscripten.clang"
  },
  "schemaVersion": "2.0.1",
  "updatedAt": "2018-12-10T10:42:10.504Z"
}