{
  "contractName": "StateMachine",
  "abi": [
    {
      "anonymous": false,
      "inputs": [
        {
          "indexed": false,
          "name": "stateId",
          "type": "bytes32"
        },
        {
          "indexed": false,
          "name": "blockNumber",
          "type": "uint256"
        }
      ],
      "name": "Transition",
      "type": "event"
    },
    {
      "constant": false,
      "inputs": [],
      "name": "conditionalTransitions",
      "outputs": [],
      "payable": false,
      "stateMutability": "nonpayable",
      "type": "function"
    },
    {
      "constant": true,
      "inputs": [],
      "name": "getCurrentStateId",
      "outputs": [
        {
          "name": "",
          "type": "bytes32"
        }
      ],
      "payable": false,
      "stateMutability": "view",
      "type": "function"
    }
  ],
  "bytecode": "0x608060405234801561001057600080fd5b50610218806100206000396000f30060806040526004361061004b5763ffffffff7c0100000000000000000000000000000000000000000000000000000000600035041663d525aa328114610050578063de4138de14610067575b600080fd5b34801561005c57600080fd5b5061006561008e565b005b34801561007357600080fd5b5061007c61013d565b60408051918252519081900360200190f35b60008060005b5050600154600090815260208190526040812054909150815b60008281526020819052604090206003015481101561012d576000828152602081905260409020600301805461010f918491849081106100e957fe5b6000918252602090912060048204015460039091166008026101000a900463ffffffff16565b156101255761011c610143565b6001925061012d565b6001016100ad565b821561013857610094565b505050565b60015490565b6001546000908152602081905260408120549081151561016257600080fd5b50600181905560005b6000828152602081905260409020600201548110156101ae57600082815260208190526040902060020180546101a69190839081106100e957fe5b60010161016b565b6040805183815243602082015281517fc9eebb3cf39ebcc16f7db0bac8f0e44d050159a092bc2d96fb613c7b142c1264929181900390910190a150505600a165627a7a72305820b06be8cd783571cec604adfd8ff89137dd348b817f2c00bb74927a8519bf9f8b0029",
  "source": "pragma solidity ^0.4.24;\n\ncontract StateMachine {\n\n    struct State {\n        bytes32 nextStateId;\n        mapping(bytes4 => bool) allowedFunctions;\n        function() internal[] transitionCallbacks;\n        function(bytes32) internal returns(bool)[] startConditions;\n    }\n\n    mapping(bytes32 => State) states;\n\n    // The current state id\n    bytes32 private currentStateId;\n\n    event Transition(bytes32 stateId, uint256 blockNumber);\n\n    /* This modifier performs the conditional transitions and checks that the function\n     * to be executed is allowed in the current State\n     */\n    modifier checkAllowed {\n        conditionalTransitions();\n        require(states[currentStateId].allowedFunctions[msg.sig]);\n        _;\n    }\n\n    ///@dev transitions the state machine into the state it should currently be in\n    ///@dev by taking into account the current conditions and how many further transitions can occur\n    function conditionalTransitions() public {\n        bool checkNextState;\n        do {\n            checkNextState = false;\n\n            bytes32 next = states[currentStateId].nextStateId;\n            // If one of the next state's conditions is met, go to this state and continue\n\n            for (uint256 i = 0; i < states[next].startConditions.length; i++) {\n                if (states[next].startConditions[i](next)) {\n                    goToNextState();\n                    checkNextState = true;\n                    break;\n                }\n            }\n        } while (checkNextState);\n    }\n\n    function getCurrentStateId() view public returns(bytes32) {\n        return currentStateId;\n    }\n\n    /// @dev Setup the state machine with the given states.\n    /// @param _stateIds Array of state ids.\n    function setStates(bytes32[] _stateIds) internal {\n        require(_stateIds.length > 0);\n        require(currentStateId == 0);\n\n        require(_stateIds[0] != 0);\n\n        currentStateId = _stateIds[0];\n\n        for (uint256 i = 1; i < _stateIds.length; i++) {\n            require(_stateIds[i] != 0);\n\n            states[_stateIds[i - 1]].nextStateId = _stateIds[i];\n\n            // Check that the state appears only once in the array\n            require(states[_stateIds[i]].nextStateId == 0);\n        }\n    }\n\n    /// @dev Allow a function in the given state.\n    /// @param _stateId The id of the state\n    /// @param _functionSelector A function selector (bytes4[keccak256(functionSignature)])\n    function allowFunction(bytes32 _stateId, bytes4 _functionSelector)\n        internal\n    {\n        states[_stateId].allowedFunctions[_functionSelector] = true;\n    }\n\n    /// @dev Goes to the next state if possible (if the next state is valid)\n    function goToNextState() internal {\n        bytes32 next = states[currentStateId].nextStateId;\n        require(next != 0);\n\n        currentStateId = next;\n        for (uint256 i = 0; i < states[next].transitionCallbacks.length; i++) {\n            states[next].transitionCallbacks[i]();\n        }\n\n        emit Transition(next, block.number);\n    }\n\n    ///@dev Add a function returning a boolean as a start condition for a state.\n    /// If any condition returns true, the StateMachine will transition to the next state.\n    /// If s.startConditions is empty, the StateMachine will need to enter state s through invoking\n    /// the goToNextState() function.\n    /// A start condition should never throw. (Otherwise, the StateMachine may fail to enter into the\n    /// correct state, and succeeding start conditions may return true.)\n    /// A start condition should be gas-inexpensive since every one of them is invoked in the same call to\n    /// transition the state.\n    ///@param _stateId The ID of the state to add the condition for\n    ///@param _condition Start condition function - returns true if a start condition (for a given state ID) is met\n    function addStartCondition(\n        bytes32 _stateId,\n        function(bytes32) internal returns(bool) _condition\n    )\n        internal\n    {\n        states[_stateId].startConditions.push(_condition);\n    }\n\n    ///@dev Add a callback function for a state. All callbacks are invoked immediately after entering the state.\n    /// Callback functions should never throw. (Otherwise, the StateMachine may fail to enter a state.)\n    /// Callback functions should also be gas-inexpensive as all callbacks are invoked in the same call to enter the state.\n    ///@param _stateId The ID of the state to add a callback function for\n    ///@param _callback The callback function to add\n    function addCallback(bytes32 _stateId, function() internal _callback)\n        internal\n    {\n        states[_stateId].transitionCallbacks.push(_callback);\n    }\n}\n",
  "sourcePath": "/home/sevenflash/apps/icopool-truffle/contracts/StateMachine.sol",
  "compiler": {
    "name": "solc",
    "version": "0.4.24+commit.e67f0147.Emscripten.clang"
  },
  "schemaVersion": "2.0.1",
  "updatedAt": "2018-12-10T10:25:12.390Z"
}