{
  "contractName": "Tokensale",
  "abi": [
    {
      "payable": true,
      "stateMutability": "payable",
      "type": "fallback"
    },
    {
      "constant": false,
      "inputs": [
        {
          "name": "_token",
          "type": "address"
        }
      ],
      "name": "setToken",
      "outputs": [],
      "payable": false,
      "stateMutability": "nonpayable",
      "type": "function"
    }
  ],
  "bytecode": "0x608060405234801561001057600080fd5b50610180806100206000396000f3006080604052600436106100405763ffffffff7c0100000000000000000000000000000000000000000000000000000000600035041663144fa6d781146100e8575b60008054604080517f40c10f19000000000000000000000000000000000000000000000000000000008152336004820152346024820152905173ffffffffffffffffffffffffffffffffffffffff909216926340c10f19926044808401936020939083900390910190829087803b1580156100ba57600080fd5b505af11580156100ce573d6000803e3d6000fd5b505050506040513d60208110156100e457600080fd5b5050005b3480156100f457600080fd5b5061011673ffffffffffffffffffffffffffffffffffffffff60043516610118565b005b6000805473ffffffffffffffffffffffffffffffffffffffff191673ffffffffffffffffffffffffffffffffffffffff929092169190911790555600a165627a7a72305820af792dbf2aff7be406d93ddaccc5b62a3fe670bcc38e4fba2f5e1b5c7665b5210029",
  "source": "pragma solidity ^0.4.24;\n\nimport \"./IToken.sol\";\n\ncontract Tokensale {\n    IToken token;\n\n    function setToken(address _token)\n        public\n    {\n        token = IToken(_token);\n    }\n\n    function() payable {\n        token.mint(msg.sender, msg.value);\n    }\n}\n",
  "sourcePath": "/home/sevenflash/apps/icopool-truffle/contracts/Tokensale.sol",
  "compiler": {
    "name": "solc",
    "version": "0.4.24+commit.e67f0147.Emscripten.clang"
  },
  "schemaVersion": "2.0.1",
  "updatedAt": "2018-12-10T10:42:10.490Z"
}